{
  "contractName": "VoteTracker",
  "abi": [
    {
      "anonymous": false,
      "inputs": [
        {
          "indexed": false,
          "internalType": "string",
          "name": "add",
          "type": "string"
        },
        {
          "indexed": false,
          "internalType": "string",
          "name": "adhaarNumber",
          "type": "string"
        },
        {
          "indexed": false,
          "internalType": "string",
          "name": "email",
          "type": "string"
        }
      ],
      "name": "IdentityCreate",
      "type": "event"
    },
    {
      "anonymous": false,
      "inputs": [
        {
          "indexed": false,
          "internalType": "string",
          "name": "name",
          "type": "string"
        },
        {
          "indexed": false,
          "internalType": "uint256",
          "name": "voteCount",
          "type": "uint256"
        }
      ],
      "name": "PartyCreate",
      "type": "event"
    },
    {
      "anonymous": false,
      "inputs": [
        {
          "indexed": false,
          "internalType": "uint256",
          "name": "voteCount",
          "type": "uint256"
        },
        {
          "indexed": false,
          "internalType": "uint256",
          "name": "time",
          "type": "uint256"
        },
        {
          "indexed": false,
          "internalType": "string",
          "name": "partyName",
          "type": "string"
        },
        {
          "indexed": false,
          "internalType": "string",
          "name": "adhaar",
          "type": "string"
        },
        {
          "indexed": false,
          "internalType": "string",
          "name": "constituency",
          "type": "string"
        }
      ],
      "name": "VoteGenerate",
      "type": "event"
    },
    {
      "inputs": [
        {
          "internalType": "uint256",
          "name": "",
          "type": "uint256"
        }
      ],
      "name": "IdentityStore",
      "outputs": [
        {
          "internalType": "string",
          "name": "add",
          "type": "string"
        },
        {
          "internalType": "string",
          "name": "adhaarNumber",
          "type": "string"
        },
        {
          "internalType": "string",
          "name": "email",
          "type": "string"
        }
      ],
      "stateMutability": "view",
      "type": "function"
    },
    {
      "inputs": [
        {
          "internalType": "uint256",
          "name": "",
          "type": "uint256"
        }
      ],
      "name": "PartyStore",
      "outputs": [
        {
          "internalType": "string",
          "name": "name",
          "type": "string"
        },
        {
          "internalType": "uint256",
          "name": "voteCount",
          "type": "uint256"
        }
      ],
      "stateMutability": "view",
      "type": "function"
    },
    {
      "inputs": [
        {
          "internalType": "uint256",
          "name": "",
          "type": "uint256"
        }
      ],
      "name": "VoteStore",
      "outputs": [
        {
          "internalType": "uint256",
          "name": "id",
          "type": "uint256"
        },
        {
          "internalType": "uint256",
          "name": "time",
          "type": "uint256"
        },
        {
          "internalType": "string",
          "name": "PartyName",
          "type": "string"
        },
        {
          "internalType": "string",
          "name": "adhaar",
          "type": "string"
        },
        {
          "internalType": "string",
          "name": "constituency",
          "type": "string"
        }
      ],
      "stateMutability": "view",
      "type": "function"
    },
    {
      "inputs": [],
      "name": "identityCount",
      "outputs": [
        {
          "internalType": "uint256",
          "name": "",
          "type": "uint256"
        }
      ],
      "stateMutability": "view",
      "type": "function"
    },
    {
      "inputs": [],
      "name": "partyCount",
      "outputs": [
        {
          "internalType": "uint256",
          "name": "",
          "type": "uint256"
        }
      ],
      "stateMutability": "view",
      "type": "function"
    },
    {
      "inputs": [],
      "name": "voterCount",
      "outputs": [
        {
          "internalType": "uint256",
          "name": "",
          "type": "uint256"
        }
      ],
      "stateMutability": "view",
      "type": "function"
    },
    {
      "inputs": [
        {
          "internalType": "string",
          "name": "_add",
          "type": "string"
        },
        {
          "internalType": "string",
          "name": "_adhaarNumber",
          "type": "string"
        },
        {
          "internalType": "string",
          "name": "_email",
          "type": "string"
        }
      ],
      "name": "registerUser",
      "outputs": [
        {
          "internalType": "uint256",
          "name": "",
          "type": "uint256"
        }
      ],
      "stateMutability": "nonpayable",
      "type": "function"
    },
    {
      "inputs": [
        {
          "internalType": "string",
          "name": "_adder",
          "type": "string"
        },
        {
          "internalType": "string",
          "name": "_partyName",
          "type": "string"
        },
        {
          "internalType": "string",
          "name": "_adhaar",
          "type": "string"
        },
        {
          "internalType": "string",
          "name": "_constituency",
          "type": "string"
        }
      ],
      "name": "generateVote",
      "outputs": [
        {
          "internalType": "uint256",
          "name": "",
          "type": "uint256"
        }
      ],
      "stateMutability": "nonpayable",
      "type": "function"
    },
    {
      "inputs": [
        {
          "internalType": "string",
          "name": "_name",
          "type": "string"
        }
      ],
      "name": "createParty",
      "outputs": [
        {
          "internalType": "uint256",
          "name": "",
          "type": "uint256"
        }
      ],
      "stateMutability": "nonpayable",
      "type": "function"
    },
    {
      "inputs": [],
      "name": "getAdminKey",
      "outputs": [
        {
          "internalType": "string",
          "name": "",
          "type": "string"
        }
      ],
      "stateMutability": "view",
      "type": "function"
    },
    {
      "inputs": [],
      "name": "getPartyCount",
      "outputs": [
        {
          "internalType": "uint256",
          "name": "",
          "type": "uint256"
        }
      ],
      "stateMutability": "view",
      "type": "function"
    },
    {
      "inputs": [
        {
          "internalType": "uint256",
          "name": "_id",
          "type": "uint256"
        }
      ],
      "name": "getNames",
      "outputs": [
        {
          "internalType": "uint256",
          "name": "",
          "type": "uint256"
        },
        {
          "internalType": "string",
          "name": "",
          "type": "string"
        }
      ],
      "stateMutability": "view",
      "type": "function"
    }
  ],
  "bytecode": "0x60806040526040518060400160405280600681526020017f31323334353600000000000000000000000000000000000000000000000000008152505f9081620000499190620002cd565b505f6002555f6004555f60065534801562000062575f80fd5b50620003b1565b5f81519050919050565b7f4e487b71000000000000000000000000000000000000000000000000000000005f52604160045260245ffd5b7f4e487b71000000000000000000000000000000000000000000000000000000005f52602260045260245ffd5b5f6002820490506001821680620000e557607f821691505b602082108103620000fb57620000fa620000a0565b5b50919050565b5f819050815f5260205f209050919050565b5f6020601f8301049050919050565b5f82821b905092915050565b5f600883026200015f7fffffffffffffffffffffffffffffffffffffffffffffffffffffffffffffffff8262000122565b6200016b868362000122565b95508019841693508086168417925050509392505050565b5f819050919050565b5f819050919050565b5f620001b5620001af620001a98462000183565b6200018c565b62000183565b9050919050565b5f819050919050565b620001d08362000195565b620001e8620001df82620001bc565b8484546200012e565b825550505050565b5f90565b620001fe620001f0565b6200020b818484620001c5565b505050565b5b818110156200023257620002265f82620001f4565b60018101905062000211565b5050565b601f82111562000281576200024b8162000101565b620002568462000113565b8101602085101562000266578190505b6200027e620002758562000113565b83018262000210565b50505b505050565b5f82821c905092915050565b5f620002a35f198460080262000286565b1980831691505092915050565b5f620002bd838362000292565b9150826002028217905092915050565b620002d88262000069565b67ffffffffffffffff811115620002f457620002f362000073565b5b620003008254620000cd565b6200030d82828562000236565b5f60209050601f83116001811462000343575f84156200032e578287015190505b6200033a8582620002b0565b865550620003a9565b601f198416620003538662000101565b5f5b828110156200037c5784890151825560018201915060208501945060208101905062000355565b868310156200039c578489015162000398601f89168262000292565b8355505b6001600288020188555050505b505050505050565b611df480620003bf5f395ff3fe608060405234801561000f575f80fd5b50600436106100b1575f3560e01c80635718e17b1161006f5780635718e17b146101a357806360b960e5146101d45780639eb8e725146101f2578063b45fd78214610210578063b8df43ae14610241578063d637dcfa14610273576100b1565b80624094db146100b557806320a6f49f146100e5578063339d74a31461011557806338678ba51461014957806342169e48146101675780634834088b14610185575b5f80fd5b6100cf60048036038101906100ca91906111a1565b6102a3565b6040516100dc9190611200565b60405180910390f35b6100ff60048036038101906100fa9190611219565b61038f565b60405161010c9190611200565b60405180910390f35b61012f600480360381019061012a9190611317565b6105e1565b6040516101409594939291906113bc565b60405180910390f35b6101516107a5565b60405161015e9190611200565b60405180910390f35b61016f6107ab565b60405161017c9190611200565b60405180910390f35b61018d6107b1565b60405161019a9190611422565b60405180910390f35b6101bd60048036038101906101b89190611317565b610840565b6040516101cb929190611442565b60405180910390f35b6101dc610943565b6040516101e99190611200565b60405180910390f35b6101fa61094c565b6040516102079190611200565b60405180910390f35b61022a60048036038101906102259190611317565b610952565b604051610238929190611470565b60405180910390f35b61025b60048036038101906102569190611317565b6109f8565b60405161026a9392919061149e565b60405180910390f35b61028d600480360381019061028891906114e8565b610bb0565b60405161029a9190611200565b60405180910390f35b5f6102ad82610d10565b6102ec576040517f08c379a00000000000000000000000000000000000000000000000000000000081526004016102e3906115d6565b60405180910390fd5b60045f8154809291906102fe90611621565b919050555060405180604001604052808381526020015f81525060035f60045481526020019081526020015f205f820151815f01908161033e9190611862565b50602082015181600101559050507f2b0eeee174d41d45c8b5c15a69654052c8d29819fe75dcf785bb428e343f0655825f60405161037d92919061196a565b60405180910390a16004549050919050565b5f61039985610dac565b156103d9576040517f08c379a00000000000000000000000000000000000000000000000000000000081526004016103d0906119e2565b60405180910390fd5b6103e283610e48565b15610422576040517f08c379a000000000000000000000000000000000000000000000000000000000815260040161041990611a4a565b60405180910390fd5b61042b83610ee5565b61046a576040517f08c379a000000000000000000000000000000000000000000000000000000000815260040161046190611ab2565b60405180910390fd5b61047384610d10565b156104b3576040517f08c379a00000000000000000000000000000000000000000000000000000000081526004016104aa90611b1a565b60405180910390fd5b60025f8154809291906104c590611621565b91905055506040518060a0016040528060025481526020014281526020018581526020018481526020018381525060015f60025481526020019081526020015f205f820151815f015560208201518160010155604082015181600201908161052d9190611862565b5060608201518160030190816105439190611862565b5060808201518160040190816105599190611862565b509050505f61056785610f82565b905060035f8281526020019081526020015f206001015f81548092919061058d90611621565b91905055507f13c5e646d5829eacc1885d8609b921c6e6f30dcd63a0a7610a2ed75e6c86fae2600254428787876040516105cb9594939291906113bc565b60405180910390a1600254915050949350505050565b6001602052805f5260405f205f91509050805f01549080600101549080600201805461060c90611695565b80601f016020809104026020016040519081016040528092919081815260200182805461063890611695565b80156106835780601f1061065a57610100808354040283529160200191610683565b820191905f5260205f20905b81548152906001019060200180831161066657829003601f168201915b50505050509080600301805461069890611695565b80601f01602080910402602001604051908101604052809291908181526020018280546106c490611695565b801561070f5780601f106106e65761010080835404028352916020019161070f565b820191905f5260205f20905b8154815290600101906020018083116106f257829003601f168201915b50505050509080600401805461072490611695565b80601f016020809104026020016040519081016040528092919081815260200182805461075090611695565b801561079b5780601f106107725761010080835404028352916020019161079b565b820191905f5260205f20905b81548152906001019060200180831161077e57829003601f168201915b5050505050905085565b60065481565b60025481565b60605f80546107bf90611695565b80601f01602080910402602001604051908101604052809291908181526020018280546107eb90611695565b80156108365780601f1061080d57610100808354040283529160200191610836565b820191905f5260205f20905b81548152906001019060200180831161081957829003601f168201915b5050505050905090565b5f6060600454831115610888576040517f08c379a000000000000000000000000000000000000000000000000000000000815260040161087f90611b82565b60405180910390fd5b60035f8481526020019081526020015f206001015460035f8581526020019081526020015f205f018080546108bc90611695565b80601f01602080910402602001604051908101604052809291908181526020018280546108e890611695565b80156109335780601f1061090a57610100808354040283529160200191610933565b820191905f5260205f20905b81548152906001019060200180831161091657829003601f168201915b5050505050905091509150915091565b5f600454905090565b60045481565b6003602052805f5260405f205f91509050805f01805461097190611695565b80601f016020809104026020016040519081016040528092919081815260200182805461099d90611695565b80156109e85780601f106109bf576101008083540402835291602001916109e8565b820191905f5260205f20905b8154815290600101906020018083116109cb57829003601f168201915b5050505050908060010154905082565b6005602052805f5260405f205f91509050805f018054610a1790611695565b80601f0160208091040260200160405190810160405280929190818152602001828054610a4390611695565b8015610a8e5780601f10610a6557610100808354040283529160200191610a8e565b820191905f5260205f20905b815481529060010190602001808311610a7157829003601f168201915b505050505090806001018054610aa390611695565b80601f0160208091040260200160405190810160405280929190818152602001828054610acf90611695565b8015610b1a5780601f10610af157610100808354040283529160200191610b1a565b820191905f5260205f20905b815481529060010190602001808311610afd57829003601f168201915b505050505090806002018054610b2f90611695565b80601f0160208091040260200160405190810160405280929190818152602001828054610b5b90611695565b8015610ba65780601f10610b7d57610100808354040283529160200191610ba6565b820191905f5260205f20905b815481529060010190602001808311610b8957829003601f168201915b5050505050905083565b5f610bba84610dac565b610bf9576040517f08c379a0000000000000000000000000000000000000000000000000000000008152600401610bf090611bea565b60405180910390fd5b610c0283610e48565b610c41576040517f08c379a0000000000000000000000000000000000000000000000000000000008152600401610c3890611c52565b60405180910390fd5b60065f815480929190610c5390611621565b919050555060405180606001604052808581526020018481526020018381525060055f60065481526020019081526020015f205f820151815f019081610c999190611862565b506020820151816001019081610caf9190611862565b506040820151816002019081610cc59190611862565b509050507f133561d57163d827b6672878a1fbdd752b3d3a77b2170dca0fff4fdaf4dcfe44848484604051610cfc9392919061149e565b60405180910390a160065490509392505050565b5f80600190505b6004548111610da15782604051602001610d319190611caa565b6040516020818303038152906040528051906020012060035f8381526020019081526020015f205f01604051602001610d6a9190611d40565b6040516020818303038152906040528051906020012003610d8e575f915050610da7565b8080610d9990611621565b915050610d17565b50600190505b919050565b5f80600190505b6006548111610e3d5782604051602001610dcd9190611caa565b6040516020818303038152906040528051906020012060055f8381526020019081526020015f205f01604051602001610e069190611d40565b6040516020818303038152906040528051906020012003610e2a575f915050610e43565b8080610e3590611621565b915050610db3565b50600190505b919050565b5f80600190505b6006548111610eda5782604051602001610e699190611caa565b6040516020818303038152906040528051906020012060055f8381526020019081526020015f20600101604051602001610ea39190611d40565b6040516020818303038152906040528051906020012003610ec7575f915050610ee0565b8080610ed290611621565b915050610e4f565b50600190505b919050565b5f80600190505b6002548111610f775782604051602001610f069190611caa565b6040516020818303038152906040528051906020012060015f8381526020019081526020015f20600301604051602001610f409190611d40565b6040516020818303038152906040528051906020012003610f64575f915050610f7d565b8080610f6f90611621565b915050610eec565b50600190505b919050565b5f80600190505b60045481116110135782604051602001610fa39190611caa565b6040516020818303038152906040528051906020012060035f8381526020019081526020015f205f01604051602001610fdc9190611d40565b6040516020818303038152906040528051906020012003611000578091505061104f565b808061100b90611621565b915050610f89565b506040517f08c379a000000000000000000000000000000000000000000000000000000000815260040161104690611da0565b60405180910390fd5b919050565b5f604051905090565b5f80fd5b5f80fd5b5f80fd5b5f80fd5b5f601f19601f8301169050919050565b7f4e487b71000000000000000000000000000000000000000000000000000000005f52604160045260245ffd5b6110b38261106d565b810181811067ffffffffffffffff821117156110d2576110d161107d565b5b80604052505050565b5f6110e4611054565b90506110f082826110aa565b919050565b5f67ffffffffffffffff82111561110f5761110e61107d565b5b6111188261106d565b9050602081019050919050565b828183375f83830152505050565b5f611145611140846110f5565b6110db565b90508281526020810184848401111561116157611160611069565b5b61116c848285611125565b509392505050565b5f82601f83011261118857611187611065565b5b8135611198848260208601611133565b91505092915050565b5f602082840312156111b6576111b561105d565b5b5f82013567ffffffffffffffff8111156111d3576111d2611061565b5b6111df84828501611174565b91505092915050565b5f819050919050565b6111fa816111e8565b82525050565b5f6020820190506112135f8301846111f1565b92915050565b5f805f80608085870312156112315761123061105d565b5b5f85013567ffffffffffffffff81111561124e5761124d611061565b5b61125a87828801611174565b945050602085013567ffffffffffffffff81111561127b5761127a611061565b5b61128787828801611174565b935050604085013567ffffffffffffffff8111156112a8576112a7611061565b5b6112b487828801611174565b925050606085013567ffffffffffffffff8111156112d5576112d4611061565b5b6112e187828801611174565b91505092959194509250565b6112f6816111e8565b8114611300575f80fd5b50565b5f81359050611311816112ed565b92915050565b5f6020828403121561132c5761132b61105d565b5b5f61133984828501611303565b91505092915050565b5f81519050919050565b5f82825260208201905092915050565b5f5b8381101561137957808201518184015260208101905061135e565b5f8484015250505050565b5f61138e82611342565b611398818561134c565b93506113a881856020860161135c565b6113b18161106d565b840191505092915050565b5f60a0820190506113cf5f8301886111f1565b6113dc60208301876111f1565b81810360408301526113ee8186611384565b905081810360608301526114028185611384565b905081810360808301526114168184611384565b90509695505050505050565b5f6020820190508181035f83015261143a8184611384565b905092915050565b5f6040820190506114555f8301856111f1565b81810360208301526114678184611384565b90509392505050565b5f6040820190508181035f8301526114888185611384565b905061149760208301846111f1565b9392505050565b5f6060820190508181035f8301526114b68186611384565b905081810360208301526114ca8185611384565b905081810360408301526114de8184611384565b9050949350505050565b5f805f606084860312156114ff576114fe61105d565b5b5f84013567ffffffffffffffff81111561151c5761151b611061565b5b61152886828701611174565b935050602084013567ffffffffffffffff81111561154957611548611061565b5b61155586828701611174565b925050604084013567ffffffffffffffff81111561157657611575611061565b5b61158286828701611174565b9150509250925092565b7f506172747920616c7265616479206578697374730000000000000000000000005f82015250565b5f6115c060148361134c565b91506115cb8261158c565b602082019050919050565b5f6020820190508181035f8301526115ed816115b4565b9050919050565b7f4e487b71000000000000000000000000000000000000000000000000000000005f52601160045260245ffd5b5f61162b826111e8565b91507fffffffffffffffffffffffffffffffffffffffffffffffffffffffffffffffff820361165d5761165c6115f4565b5b600182019050919050565b7f4e487b71000000000000000000000000000000000000000000000000000000005f52602260045260245ffd5b5f60028204905060018216806116ac57607f821691505b6020821081036116bf576116be611668565b5b50919050565b5f819050815f5260205f209050919050565b5f6020601f8301049050919050565b5f82821b905092915050565b5f600883026117217fffffffffffffffffffffffffffffffffffffffffffffffffffffffffffffffff826116e6565b61172b86836116e6565b95508019841693508086168417925050509392505050565b5f819050919050565b5f61176661176161175c846111e8565b611743565b6111e8565b9050919050565b5f819050919050565b61177f8361174c565b61179361178b8261176d565b8484546116f2565b825550505050565b5f90565b6117a761179b565b6117b2818484611776565b505050565b5b818110156117d5576117ca5f8261179f565b6001810190506117b8565b5050565b601f82111561181a576117eb816116c5565b6117f4846116d7565b81016020851015611803578190505b61181761180f856116d7565b8301826117b7565b50505b505050565b5f82821c905092915050565b5f61183a5f198460080261181f565b1980831691505092915050565b5f611852838361182b565b9150826002028217905092915050565b61186b82611342565b67ffffffffffffffff8111156118845761188361107d565b5b61188e8254611695565b6118998282856117d9565b5f60209050601f8311600181146118ca575f84156118b8578287015190505b6118c28582611847565b865550611929565b601f1984166118d8866116c5565b5f5b828110156118ff578489015182556001820191506020850194506020810190506118da565b8683101561191c5784890151611918601f89168261182b565b8355505b6001600288020188555050505b505050505050565b5f819050919050565b5f61195461194f61194a84611931565b611743565b6111e8565b9050919050565b6119648161193a565b82525050565b5f6040820190508181035f8301526119828185611384565b9050611991602083018461195b565b9392505050565b7f4163636f756e74206e6f742072656769737465726564000000000000000000005f82015250565b5f6119cc60168361134c565b91506119d782611998565b602082019050919050565b5f6020820190508181035f8301526119f9816119c0565b9050919050565b7f4944206e6f7420726567697374657265640000000000000000000000000000005f82015250565b5f611a3460118361134c565b9150611a3f82611a00565b602082019050919050565b5f6020820190508181035f830152611a6181611a28565b9050919050565b7f416c726561647920766f746564000000000000000000000000000000000000005f82015250565b5f611a9c600d8361134c565b9150611aa782611a68565b602082019050919050565b5f6020820190508181035f830152611ac981611a90565b9050919050565b7f506172747920646f6573206e6f742065786973740000000000000000000000005f82015250565b5f611b0460148361134c565b9150611b0f82611ad0565b602082019050919050565b5f6020820190508181035f830152611b3181611af8565b9050919050565b7f496e76616c6964207061727479204944000000000000000000000000000000005f82015250565b5f611b6c60108361134c565b9150611b7782611b38565b602082019050919050565b5f6020820190508181035f830152611b9981611b60565b9050919050565b7f4163636f756e7420616c726561647920657869737473000000000000000000005f82015250565b5f611bd460168361134c565b9150611bdf82611ba0565b602082019050919050565b5f6020820190508181035f830152611c0181611bc8565b9050919050565b7f494420616c7265616479206578697374730000000000000000000000000000005f82015250565b5f611c3c60118361134c565b9150611c4782611c08565b602082019050919050565b5f6020820190508181035f830152611c6981611c30565b9050919050565b5f81905092915050565b5f611c8482611342565b611c8e8185611c70565b9350611c9e81856020860161135c565b80840191505092915050565b5f611cb58284611c7a565b915081905092915050565b5f8154611ccc81611695565b611cd68186611c70565b9450600182165f8114611cf05760018114611d0557611d37565b60ff1983168652811515820286019350611d37565b611d0e856116c5565b5f5b83811015611d2f57815481890152600182019150602081019050611d10565b838801955050505b50505092915050565b5f611d4b8284611cc0565b915081905092915050565b7f5061727479206e6f7420666f756e6400000000000000000000000000000000005f82015250565b5f611d8a600f8361134c565b9150611d9582611d56565b602082019050919050565b5f6020820190508181035f830152611db781611d7e565b905091905056fea26469706673582212200deeefeae1570d7321e9284476eea206301d515a8131975baf99e581aaca00ed64736f6c63430008150033",
  "immutableReferences": {},
  "source": "pragma solidity >=0.4.21 <0.9.0;\r\npragma experimental ABIEncoderV2;\r\nimport \"./VoteLibrary.sol\";\r\n\r\ncontract VoteTracker {\r\n    string private secret = \"123456\"; // Changed to 'private'\r\n\r\n    mapping(uint => VoteLibrary.Vote) public VoteStore;\r\n    uint256 public voterCount = 0;\r\n\r\n    mapping(uint => VoteLibrary.Party) public PartyStore;\r\n    uint256 public partyCount = 0;\r\n\r\n    mapping(uint => VoteLibrary.Identity) public IdentityStore;\r\n    uint256 public identityCount = 0;\r\n\r\n    event IdentityCreate(string add, string adhaarNumber, string email);\r\n    event PartyCreate(string name, uint voteCount);\r\n    event VoteGenerate(uint voteCount, uint time, string partyName, string adhaar, string constituency);\r\n\r\n    function registerUser(string memory _add, string memory _adhaarNumber, string memory _email) public returns (uint256) {\r\n        require(checkIfAccCanExist(_add), \"Account already exists\");\r\n        require(checkIfIdCanExist(_adhaarNumber), \"ID already exists\");\r\n        identityCount++;\r\n        IdentityStore[identityCount] = VoteLibrary.Identity(_add, _adhaarNumber, _email);\r\n        emit IdentityCreate(_add, _adhaarNumber, _email);\r\n        return identityCount;\r\n    }\r\n\r\n    function generateVote(string memory _adder, string memory _partyName, string memory _adhaar, string memory _constituency) public returns (uint256) {\r\n        require(!checkIfAccCanExist(_adder), \"Account not registered\");\r\n        require(!checkIfIdCanExist(_adhaar), \"ID not registered\");\r\n        require(checkIfCanVote(_adhaar), \"Already voted\");\r\n        require(!checkIfCanExist(_partyName), \"Party does not exist\");\r\n\r\n        voterCount++;\r\n        VoteStore[voterCount] = VoteLibrary.Vote(voterCount, block.timestamp, _partyName, _adhaar, _constituency);\r\n        uint partyIndex = getParty(_partyName);\r\n        PartyStore[partyIndex].voteCount++;\r\n\r\n        emit VoteGenerate(voterCount, block.timestamp, _partyName, _adhaar, _constituency);\r\n        return voterCount;\r\n    }\r\n\r\n    function createParty(string memory _name) public returns (uint256) {\r\n        require(checkIfCanExist(_name), \"Party already exists\");\r\n        partyCount++;\r\n        PartyStore[partyCount] = VoteLibrary.Party(_name, 0);\r\n        emit PartyCreate(_name, 0);\r\n        return partyCount;\r\n    }\r\n\r\n    function getAdminKey() public view returns (string memory) {\r\n        return secret;\r\n    }\r\n\r\n    function checkIfCanExist(string memory _namer) private view returns (bool) {\r\n        for (uint i = 1; i <= partyCount; i++) {\r\n            if (keccak256(abi.encodePacked(PartyStore[i].name)) == keccak256(abi.encodePacked(_namer))) {\r\n                return false;\r\n            }\r\n        }\r\n        return true;\r\n    }\r\n\r\n    function checkIfIdCanExist(string memory _namered) private view returns (bool) {\r\n        for (uint i = 1; i <= identityCount; i++) {\r\n            if (keccak256(abi.encodePacked(IdentityStore[i].adhaarNumber)) == keccak256(abi.encodePacked(_namered))) {\r\n                return false;\r\n            }\r\n        }\r\n        return true;\r\n    }\r\n\r\n    function checkIfAccCanExist(string memory _namerer) private view returns (bool) {\r\n        for (uint i = 1; i <= identityCount; i++) {\r\n            if (keccak256(abi.encodePacked(IdentityStore[i].add)) == keccak256(abi.encodePacked(_namerer))) {\r\n                return false;\r\n            }\r\n        }\r\n        return true;\r\n    }\r\n\r\n    function checkIfCanVote(string memory _adhaarer) private view returns (bool) {\r\n        for (uint i = 1; i <= voterCount; i++) {\r\n            if (keccak256(abi.encodePacked(VoteStore[i].adhaar)) == keccak256(abi.encodePacked(_adhaarer))) {\r\n                return false;\r\n            }\r\n        }\r\n        return true;\r\n    }\r\n\r\n    function getParty(string memory _partyNamer) private view returns (uint) {\r\n        for (uint i = 1; i <= partyCount; i++) {\r\n            if (keccak256(abi.encodePacked(PartyStore[i].name)) == keccak256(abi.encodePacked(_partyNamer))) {\r\n                return i;\r\n            }\r\n        }\r\n        revert(\"Party not found\");\r\n    }\r\n\r\n    function getPartyCount() public view returns (uint) {\r\n        return partyCount;\r\n    }\r\n\r\n    function getNames(uint _id) public view returns (uint, string memory) {\r\n        require(_id <= partyCount, \"Invalid party ID\");\r\n        return (PartyStore[_id].voteCount, PartyStore[_id].name);\r\n    }\r\n}\r\n",
  "sourcePath": "C:\\Users\\Yash\\E-Voting-dApp\\contracts\\VoteTracker.sol",
  "compiler": {
    "name": "solc",
    "version": "0.8.21+commit.d9974bed.Emscripten.clang"
  },
  "schemaVersion": "3.4.16",
  "updatedAt": "2025-03-29T18:44:09.774Z",
  "devdoc": {
    "kind": "dev",
    "methods": {},
    "version": 1
  },
  "userdoc": {
    "kind": "user",
    "methods": {},
    "version": 1
  }
}